:100000000C94BC080C94D9080C94D9080C94D90809
:100010000C94D9080C94D9080C94D9080C94D908DC
:100020000C94D9080C94D9080C94D9080C94D908CC
:100030000C94D9080C94D9080C94D9080C94D908BC
:100040000C94D9080C94D9080C94D9080C94D908AC
:100050000C94D9080C94D9080C94D9080C94D9089C
:100060000C94D9080C94D9080C94D9080C94D9088C
:100070000C94D9080C94D9080C94D9080C94D9087C
:100080000C94D9080C94D9080C94D9080C94D9086C
:100090000C94D9080C94D9080C94D9080C94D9085C
:1000A0000C94D9080C94D9080C94D9080C94D9084C
:1000B0000C94D9080C94D9080C94D9080C94D9083C
:1000C0000C94D9080C94D9080C94D9080C94D9082C
:1000D0000C94D9080C94D9080C94D9080C94D9081C
:1000E0000C94D9080C94D9080C94D9080C94D9080C
:1000F0000C94D9080C94D9080C94D9080C94D908FC
:100100000C94D9080C94D9080C94D9080C94D908EB
:100110000C94D9080C94D9080C94D9080C94D908DB
:100120000C94D9080C94D9080C94D9080C94D908CB
:100130000C94D9080C94D9080C94D9080C94D908BB
:100140000C94D9080C94D9080C94D9080C94D908AB
:100150000C94D9080C94D9080C94D9080C94D9089B
:100160000C94D9080C94D9080C94D9080C94D9088B
:100170000C94D9080C94D9087D007D007E007E0087
:100180007F007F007F008000800080008100810070
:100190008200820082008300830084008400840047
:1001A000850085008500860086008700870087001F
:1001B000880088008800890089008A008A008A00F7
:1001C0008B008B008C008C008C008D008D008D00CE
:1001D0008E008E008F008F008F00900090009000A6
:1001E000910091009200920092009300930094007D
:1001F0009400940095009500950096009600970055
:1002000097009700980098009800990099009A002C
:100210009A009A009B009B009B009C009C009C0005
:100220009D009D009E009E009E009F009F009F00DD
:10023000A000A000A100A100A100A200A200A200B5
:10024000A300A300A300A400A400A500A500A5008E
:10025000A600A600A600A700A700A700A800A80067
:10026000A900A900A900AA00AA00AA00AB00AB003F
:10027000AB00AC00AC00AC00AD00AD00AE00AE0019
:10028000AE00AF00AF00AF00B000B000B000B100F2
:10029000B100B100B200B200B200B300B300B300CD
:1002A000B400B400B500B500B500B600B600B600A5
:1002B000B700B700B700B800B800B800B900B9007F
:1002C000B900BA00BA00BA00BB00BB00BB00BC005A
:1002D000BC00BC00BD00BD00BD00BE00BE00BE0035
:1002E000BF00BF00BF00C000C000C000C100C1000F
:1002F000C100C100C200C200C200C300C300C300ED
:10030000C400C400C400C500C500C500C600C600C6
:10031000C600C700C700C700C700C800C800C800A3
:10032000C900C900C900CA00CA00CA00CB00CB007E
:10033000CB00CB00CC00CC00CC00CD00CD00CD005C
:10034000CD00CE00CE00CE00CF00CF00CF00D00039
:10035000D000D000D000D100D100D100D200D20016
:10036000D200D200D300D300D300D300D400D400F5
:10037000D400D500D500D500D500D600D600D600D3
:10038000D600D700D700D700D800D800D800D800B2
:10039000D900D900D900D900DA00DA00DA00DA0091
:1003A000DB00DB00DB00DB00DC00DC00DC00DC0071
:1003B000DD00DD00DD00DD00DE00DE00DE00DE0051
:1003C000DF00DF00DF00DF00E000E000E000E00031
:1003D000E000E100E100E100E100E200E200E20013
:1003E000E200E300E300E300E300E300E400E400F4
:1003F000E400E400E500E500E500E500E500E600D6
:10040000E600E600E600E600E700E700E700E700B8
:10041000E700E800E800E800E800E800E900E9009B
:10042000E900E900E900EA00EA00EA00EA00EA007F
:10043000EB00EB00EB00EB00EB00EB00EC00EC0062
:10044000EC00EC00EC00EC00ED00ED00ED00ED0048
:10045000ED00EE00EE00EE00EE00EE00EE00EE002D
:10046000EF00EF00EF00EF00EF00EF00F000F00012
:10047000F000F000F000F000F000F100F100F100F9
:10048000F100F100F100F100F200F200F200F200E0
:10049000F200F200F200F300F300F300F300F300C7
:1004A000F300F300F300F400F400F400F400F400AF
:1004B000F400F400F400F500F500F500F500F50097
:1004C000F500F500F500F500F500F600F600F60081
:1004D000F600F600F600F600F600F600F600F7006B
:1004E000F700F700F700F700F700F700F700F70054
:1004F000F700F700F700F800F800F800F800F8003F
:10050000F800F800F800F800F800F800F800F8002B
:10051000F800F800F900F900F900F900F900F90015
:10052000F900F900F900F900F900F900F900F90003
:10053000F900F900F900F900F900F900F900FA00F2
:10054000FA00FA00FA00FA00FA00FA00FA00FA00DB
:10055000FA00FA00FA00FA00FA00FA00FA00FA00CB
:10056000FA00FA00FA00FA00FA00FA00FA00FA00BB
:10057000FA00FA00FA00FA00FA00FA00FA00FA00AB
:10058000FA00FA00FA00FA00FA00FA00FA00FA009B
:10059000FA00FA00FA00FA00FA00FA00FA00FA008B
:1005A000FA00FA00FA00FA00FA00FA00FA00FA007B
:1005B000FA00FA00F900F900F900F900F900F90071
:1005C000F900F900F900F900F900F900F900F90063
:1005D000F900F900F900F900F900F900F900F80054
:1005E000F800F800F800F800F800F800F800F8004B
:1005F000F800F800F800F800F800F800F700F7003D
:10060000F700F700F700F700F700F700F700F70032
:10061000F700F700F600F600F600F600F600F60028
:10062000F600F600F600F600F500F500F500F5001E
:10063000F500F500F500F500F500F500F400F40014
:10064000F400F400F400F400F400F400F300F3000C
:10065000F300F300F300F300F300F300F200F20004
:10066000F200F200F200F200F200F100F100F100FD
:10067000F100F100F100F100F000F000F000F000F6
:10068000F000F000F000EF00EF00EF00EF00EF00EF
:10069000EF00EE00EE00EE00EE00EE00EE00EE00E9
:1006A000ED00ED00ED00ED00ED00EC00EC00EC00E5
:1006B000EC00EC00EC00EB00EB00EB00EB00EB00DF
:1006C000EB00EA00EA00EA00EA00EA00E900E900DB
:1006D000E900E900E900E800E800E800E800E800D7
:1006E000E700E700E700E700E700E600E600E600D5
:1006F000E600E600E500E500E500E500E500E400D1
:10070000E400E400E400E300E300E300E300E300CE
:10071000E200E200E200E200E100E100E100E100CD
:10072000E000E000E000E000E000DF00DF00DF00CC
:10073000DF00DE00DE00DE00DE00DD00DD00DD00CB
:10074000DD00DC00DC00DC00DC00DB00DB00DB00CB
:10075000DB00DA00DA00DA00DA00D900D900D900CB
:10076000D900D800D800D800D800D700D700D700CB
:10077000D600D600D600D600D500D500D500D500CD
:10078000D400D400D400D300D300D300D300D200CF
:10079000D200D200D200D100D100D100D000D000D0
:1007A000D000D000CF00CF00CF00CE00CE00CE00D2
:1007B000CD00CD00CD00CD00CC00CC00CC00CB00D6
:1007C000CB00CB00CB00CA00CA00CA00C900C900D8
:1007D000C900C800C800C800C700C700C700C700DC
:1007E000C600C600C600C500C500C500C400C400E0
:1007F000C400C300C300C300C200C200C200C100E5
:10080000C100C100C100C000C000C000BF00BF00E7
:10081000BF00BE00BE00BE00BD00BD00BD00BC00EC
:10082000BC00BC00BB00BB00BB00BA00BA00BA00F1
:10083000B900B900B900B800B800B800B700B700F7
:10084000B700B600B600B600B500B500B500B400FC
:10085000B400B300B300B300B200B200B200B10004
:10086000B100B100B000B000B000AF00AF00AF0009
:10087000AE00AE00AE00AD00AD00AC00AC00AC0010
:10088000AB00AB00AB00AA00AA00AA00A900A90017
:10089000A900A800A800A700A700A700A600A6001E
:1008A000A600A500A500A500A400A400A300A30025
:1008B000A300A200A200A200A100A100A100A0002C
:1008C000A0009F009F009F009E009E009E009D0034
:1008D0009D009C009C009C009B009B009B009A003C
:1008E0009A009A0099009900980098009800970043
:1008F000970097009600960095009500950094004B
:100900009400940093009300920092009200910052
:1009100091009000900090008F008F008F008E005B
:100920008E008D008D008D008C008C008C008B0063
:100930008B008A008A008A0089008900880088006C
:100940008800870087008700860086008500850074
:10095000850084008400840083008300820082007C
:100960008200810081008000800080007F007F0085
:100970007F007E007E007D007D007D007C007C008D
:100980007B007B007B007A007A007A007900790096
:10099000780078007800770077007600760076009F
:1009A00075007500750074007400730073007300A7
:1009B00072007200720071007100700070007000AF
:1009C0006F006F006E006E006E006D006D006D00B8
:1009D0006C006C006B006B006B006A006A006A00C0
:1009E00069006900680068006800670067006600C9
:1009F00066006600650065006500640064006300D1
:100A000063006300620062006200610061006000D8
:100A1000600060005F005F005F005E005E005E00DF
:100A20005D005D005C005C005C005B005B005B00E7
:100A30005A005A00590059005900580058005800EF
:100A400057005700570056005600550055005500F6
:100A500054005400540053005300530052005200FD
:100A60005100510051005000500050004F004F0005
:100A70004F004E004E004E004D004D004C004C000B
:100A80004C004B004B004B004A004A004A00490012
:100A90004900490048004800480047004700470017
:100AA000460046004500450045004400440044001F
:100AB0004300430043004200420042004100410025
:100AC00041004000400040003F003F003F003E002A
:100AD0003E003E003D003D003D003C003C003C002F
:100AE0003B003B003B003A003A003A003900390035
:100AF0003900390038003800380037003700370037
:100B0000360036003600350035003500340034003C
:100B1000340033003300330033003200320032003F
:100B20003100310031003000300030002F002F0044
:100B30002F002F002E002E002E002D002D002D0046
:100B40002D002C002C002C002B002B002B002A0049
:100B50002A002A002A00290029002900280028004C
:100B6000280028002700270027002700260026004D
:100B7000260025002500250025002400240024004F
:100B80002400230023002300220022002200220050
:100B90002100210021002100200020002000200051
:100BA0001F001F001F001F001E001E001E001E0051
:100BB0001D001D001D001D001C001C001C001C0051
:100BC0001B001B001B001B001A001A001A001A0051
:100BD0001A0019001900190019001800180018004F
:100BE000180017001700170017001700160016004E
:100BF000160016001500150015001500150014004C
:100C00001400140014001400130013001300130048
:100C10001300120012001200120012001100110045
:100C20001100110011001000100010001000100041
:100C30000F000F000F000F000F000F000E000E003E
:100C40000E000E000E000E000D000D000D000D0038
:100C50000D000C000C000C000C000C000C000C0033
:100C60000B000B000B000B000B000B000A000A002E
:100C70000A000A000A000A000A0009000900090027
:100C80000900090009000900080008000800080020
:100C90000800080008000700070007000700070019
:100CA0000700070007000600060006000600060011
:100CB0000600060006000500050005000500050009
:100CC00005000500050005000500040004000400FF
:100CD00004000400040004000400040004000300F5
:100CE00003000300030003000300030003000300EC
:100CF00003000300030002000200020002000200E1
:100D000002000200020002000200020002000200D3
:100D100002000200010001000100010001000100C9
:100D200001000100010001000100010001000100BB
:100D300001000100010001000100010001000000AC
:100D400000000000000000000000000000000000A3
:100D50000000000000000000000000000000000093
:100D60000000000000000000000000000000000083
:100D70000000000000000000000000000000000073
:100D80000000000000000000000000000000000063
:100D90000000000000000000000000000000000053
:100DA0000000000000000000000000000000000043
:100DB000000000000100010001000100010001002D
:100DC000010001000100010001000100010001001B
:100DD000010001000100010001000100010002000A
:100DE00002000200020002000200020002000200F3
:100DF00002000200020002000200020003000300E1
:100E000003000300030003000300030003000300CA
:100E100003000300040004000400040004000400B4
:100E2000040004000400040005000500050005009E
:100E30000500050005000500050005000600060088
:100E40000600060006000600060006000700070070
:100E50000700070007000700070007000800080058
:100E6000080008000800080008000900090009003F
:100E700009000900090009000A000A000A000A0026
:100E80000A000A000A000B000B000B000B000B000D
:100E90000B000C000C000C000C000C000C000C00F3
:100EA0000D000D000D000D000D000E000E000E00D7
:100EB0000E000E000E000F000F000F000F000F00BD
:100EC0000F001000100010001000100011001100A1
:100ED0001100110011001200120012001200120085
:100EE0001300130013001300130014001400140067
:100EF000140014001500150015001500150016004B
:100F0000160016001600170017001700170017002C
:100F1000180018001800180019001900190019000D
:100F20001A001A001A001A001A001B001B001B00EE
:100F30001B001C001C001C001C001D001D001D00CF
:100F40001D001E001E001E001E001F001F001F00AF
:100F50001F0020002000200020002100210021008F
:100F6000210022002200220022002300230023006F
:100F7000240024002400240025002500250025004D
:100F8000260026002600270027002700270028002B
:100F90002800280028002900290029002A002A000A
:100FA0002A002A002B002B002B002C002C002C00E8
:100FB0002D002D002D002D002E002E002E002F00C4
:100FC0002F002F002F0030003000300031003100A2
:100FD000310032003200320033003300330033007E
:100FE000340034003400350035003500360036005A
:100FF0003600370037003700380038003800390035
:101000003900390039003A003A003A003B003B0011
:101010003B003C003C003C003D003D003D003E00EC
:101020003E003E003F003F003F00400040004000C7
:1010300041004100410042004200420043004300A1
:10104000430044004400440045004500450046007C
:101050004600470047004700480048004800490054
:10106000490049004A004A004A004B004B004B002F
:101070004C004C004C004D004D004E004E004E0008
:101080004F004F004F0050005000500051005100E1
:1010900051005200520053005300530054005400BA
:1010A0005400550055005500560056005700570093
:1010B00057005800580058005900590059005A006C
:1010C0005A005B005B005B005C005C005C005D0044
:1010D0005D005E005E005E005F005F005F0060001C
:1010E00060006000610061006200620062006300F5
:1010F00063006300640064006500650065006600CD
:1011000066006600670067006800680068006900A4
:1011100069006A006A006A006B006B006B006C007B
:101120006C006D006D006D006E006E006E006F0053
:101130006F0070007000700071007100720072002A
:101140007200730073007300740074007500750002
:1011500075007600760076007700770078007800DA
:101160007800790079007A007A007A007B007B00B1
:101170007B007C007C007D0011241FBECFEFD7E2F6
:10118000DEBFCDBF10E2A0E0B0E2EAEFF3E102C0C3
:1011900005900D92A230B107D9F717E2A2E0B0E2B4
:1011A00001C01D92AC3DB107E1F70E9481090C948A
:1011B000FB090C9400002091250320FFFCCF8093B5
:1011C0003803909339030895E0E4F6E080E88083E3
:1011D000148282E1818B108A178A8CEF8093B00091
:1011E00087E0828B118612861386E0E2F6E09CE0AF
:1011F00090831482108A118A80933206838B118621
:1012000012861386089580E18093010294E0909302
:1012100004028093020281E08093200280932802DE
:10122000109218021092190298E39093210298E20A
:10123000909329028093220280932A021092320214
:1012400010923A02E0EAF0E082837894E1E0F2E082
:10125000808188608083E0E0F2E08081816080832B
:101260000895109250008091500084608093500047
:101270008091510082FFFCCF80915000826080936A
:10128000500088ED84BF80914100807880934100B8
:10129000809156008C7F8260809356008091600020
:1012A0008160809360008091510081FFFCCF88EDC8
:1012B00084BF80914000887F81608093400080914E
:1012C0005000867E809350001092B400089585E00F
:1012D000809320031092210388E0809322030895D5
:1012E000882319F0813021F00895CB010C94DB089C
:1012F0008091250381FFFCCF60933A0370933B03F9
:1013000008950E94E4080E9431090E9403090E9486
:101310006709C1E0D1E08091230280FFFCCFC09338
:1013200023028091100290911102809308209093E3
:1013300009202091042030910520F901EE0FFF1FB4
:10134000E65FFF4D808391834091480641FF05C0D1
:10135000409100204F5F40930020409100204A3090
:1013600010F0D09300204091022050910320E52FEF
:10137000FF27EE0FFF1FE858FE4FE491F0E0E093E7
:101380000620F093072060910020460F511D4093E6
:101390000220509303202E1B3F0B293E43E03407CD
:1013A00010F028513C4F2093DA273093DB2720910F
:1013B000480620FF0CC0E091DA27F091DB27EE0F02
:1013C000FF1FE65FFF4D20813181820F931F0E9436
:1013D000DB088091042090910520019680930420E1
:1013E00090930520883E934008F495CF10920420F6
:0A13F0001092052090CFF894FFCF73
:0213FA000100F0
:00000001FF
